:020000022000DC
:1060000000000420059A0300459A0300479A030004
:10601000499A03004B9A03004D9A030000000000C8
:106020000000000000000000000000008199030053
:10603000519A030000000000A1990300559A030043
:10604000599C0300579A0300579A0300579A03007C
:10605000579A0300579A0300A5730300579A030049
:10606000579A0300579A0300579A0300579A030060
:10607000579A0300579A0300579A0300579A030050
:10608000579A0300D1960300579A0300579A0300CA
:10609000579A0300579A0300B9940200579A0300D5
:1060A000579A0300579A0300579A0300579A030020
:1060B000579A0300579A03000000000000000000F8
:1060C000579A0300579A0300579A0300E99E03006A
:1060D000579A0300579A0300579A0300F5B6020037
:1060E000579A0300579A0300579A030000000000D4
:1060F00000000000579A030000000000619F0300A9
:10610000000000000000000000000000000000008F
:10611000000000000000000000000000000000007F
:10612000000000000000000000000000000000006F
:10613000000000000000000000000000000000005F
:10614000000000000000000000000000000000004F
:10615000000000000000000000000000000000003F
:10616000000000000000000000000000000000002F
:10617000000000000000000000000000000000001F
:10618000000000000000000000000000000000000F
:1061900000000000000000000000000000000000FF
:1061A00000000000000000000000000000000000EF
:1061B00000000000000000000000000000000000DF
:1061C00000000000000000000000000000000000CF
:1061D00000000000000000000000000000000000BF
:1061E00000000000000000000000000000000000AF
:1061F000000000000000000000000000000000009F
:10620000F1EE103A43F08073E1EE103A704700BFB0
:1062100010B5054C237833B9044B13B10448AFF3E0
:1062200000800123237010BD6C630020000000007B
:106230001C5C040008B5034B1BB103490348AFF3D2
:10624000008008BD00000000706300201C5C04009A
:10625000154B002B08BF134B9D46A3F5803A002138
:106260008B460F461348144A121A19F089FB0F4B3C
:10627000002B00D098470E4B002B00D098470020F1
:10628000002104000D000D48002802D00C48AFF397
:10629000008019F00BFB2000290013F00BFC19F013
:1062A000DFFA00BF0000080000000420000000002A
:1062B000000000006C630020D49D0020000000005E
:1062C00000000000313808B531281AD8DFE800F0A6
:1062D0001F29333D47515B651919191919191919E6
:1062E000191919191919191919191919191919191E
:1062F000191919191919191919191919191919190E
:10630000196FBDE808403149314810F0FBBF00214A
:106310000D2014F001FBBDE808402E492E4810F076
:10632000F1BF01210D2014F0F7FABDE808402B4918
:10633000294810F0E7BF00210E2014F0EDFABDE867
:1063400008402749244810F0DDBF01210E2014F039
:10635000E3FABDE8084023491F4810F0D3BF0021ED
:106360000F2014F0D9FABDE808401F491A4810F070
:10637000C9BF01210F2014F0CFFABDE808401B4926
:10638000154810F0BFBF0021102014F0C5FABDE879
:1063900008401749104810F0B5BF0121102014F033
:1063A000BBFABDE8084013490B4810F0ABBF1820FA
:1063B00014F0D0FA104B114A014600290CBF1146C7
:1063C00019460348BDE8084010F09CBF402E040069
:1063D00058640020F02D0400C86D0020F82D040042
:1063E000042E04000C2E0400182E0400202E04009D
:1063F0002C2E0400342E0400DC2D0400C82D0400D3
:1064000070B50F4E0F4D104C304603F019FA0F4A7D
:106410000F49304619F0ECF9284603F077F90B4A9A
:106420000C49284619F0E4F920464FF4807103F036
:106430005DFE2046054A0849BDE8704019F0D8B90C
:10644000F863002088630020406400200060002082
:10645000B56502008D65020081A10200384810B5C3
:106460004FF4E131044604F099FD01E010F0DCFF47
:10647000204604F0B1FD03460A20002BF6D0314936
:106480002F4810F03FFF002201212F4802F0BEFDEF
:106490002D48002102F0C6FF01210D2014F0B8F9AB
:1064A00001210D2014F038FA01210E2014F0B0F96A
:1064B00001210E2014F030FA01210F2014F0A8F968
:1064C00001210F2014F028FA0121102014F0A0F966
:1064D0000121102014F020FA0221182014F098F95C
:1064E0001A49194802F028FF0421174802F04CFF0E
:1064F00017491848082203F09FF90B22164915483E
:1065000003F096F9134803F0D1F9144803F024F985
:10651000134803F079FE0621124800F0AFF8114845
:1065200000F094F80F4800F063F800210D4800F0E7
:1065300041F9BDE810400C49014810F0E3BE00BF2E
:10654000C86D0020502E0400486500206C2E040009
:10655000782E0400F8630020842E04008863002055
:1065600040640020886B0020902E040008B5064887
:1065700003F00CFA00B908BD034803F057FABDE870
:106580000840C0B2FFF79EBE4064002010B5074B24
:10659000044640F8183B00F071FA2046044B40F8DE
:1065A000083B02F051FA204610BD00BFEC2F04005A
:1065B000002F040010B5044B044640F8083B02F0DD
:1065C00043FA204610BD00BF002F040072DF704761
:1065D00073DF704774DF704777DF704710B50021B5
:1065E0000446C1771F2219F0CBF9204610BD00BF29
:1065F000F0B589B0064620221348694602F0B0FE85
:10660000F37FC2181D2A0CDDC3F11D04E4B2E218A9
:106610001D2A4FF00005D8BF082705DD284609B020
:10662000F0BD044601250927F218601CF0546946A4
:106630005770901C224619F07BF9F27F0232144405
:106640002846F47709B0F0BD4865002010B504462F
:10665000094802F0E3FEE37F1C2B01DD002010BDA2
:10666000E2180221E1540A2390705370E37F033350
:10667000E377012010BD00BF48650020C27F1C2ABF
:1066800001DD0020704710B403469C180220985486
:106690000120A1706070DA7F0332DA775DF8044B75
:1066A000704700BF10B51F220446002119F068F999
:1066B000064B0749074A23620023E377C4E90C121B
:1066C000C4E90E33E3622364204610BDFF010100DC
:1066D0002000F40020001E0080F82210704700BF48
:1066E000F0B502EB820389B0154603EB830390F803
:1066F00021209B0004460020CDE90410ADF81430A1
:10670000931E0290CDE906000E4603908DF80820F6
:10671000092B09D8DFE803F0050508080805080576
:10672000080504F12403039394F82330002B38D197
:106730001E4F1F49FA7F94F81FC08A8104F1200080
:1067400002AA8F600C60A7F28467A1F804C0FFF76B
:106750003DFF10B1002009B0F0BD94F82010019168
:10676000384602F05BFE019902460120FFF734FF34
:106770000028EFD194F820000121FFF729FF00281D
:10678000E8D1384602F0A8FE628FA686AA424FF0F2
:10679000010094BF921A521B628784F8230009B04B
:1067A000F0BD94F82000FFF715FFC1E7CC6B002087
:1067B00034650020F0B5002361F30F03044661F354
:1067C0001F4389B08363FA21314802F02FFEE58E22
:1067D00094F82110278E049705EB850303EB8303C0
:1067E00000229B000592ADF814308B1E0292CDE979
:1067F000062203928DF80810092B09D8DFE803F070
:106800000505080808050805080504F12403039395
:1068100094F82330002B36D11E4E1F49F27FE37FC0
:106820008A8104F1200002AA8E600C60A6F28466C0
:106830008B80FFF7CBFE10B1002009B0F0BD94F8BB
:1068400020100191304602F0E9FD01990246012035
:10685000FFF7C2FE0028EFD194F820000121FFF7D6
:10686000B7FE0028E8D1304602F036FE638FA786D7
:106870009D424FF0010094BF5B1BDB1A638784F8D5
:10688000230009B0F0BD94F82000FFF7A3FEC3E792
:1068900048650020CC6B00203465002030B50B88A3
:1068A0008D88112B85B0044605D0262B33D0102BB4
:1068B00025D005B030BDC36AEB40DB07F9D52E48C3
:1068C00001F08EF90028F4D1E36A94F82310012234
:1068D00002FA05F523EA0503E3620029E9D194F8F9
:1068E0002230002BE5D0238F23486387FA2102F062
:1068F0009DFDE28E218E2046FFF7F2FED9E7CB7B8D
:10690000012BD6D1C26A03FA05F515430023C562EF
:1069100080F82330CDE70B7A012BCAD1002380F811
:1069200023304FF4FA71144802F080FD238F5BB1DD
:10693000658F95B1236C0BB19847658F618E2A46A0
:106940002046FFF7CDFEB4E7236C03B19847618E74
:1069500000222046FFF7C4FEABE7074802F0D0FD57
:10696000E26B002AA5D0009503AB29462846039583
:1069700013F028FD9DE700BF4865002075DF7047D4
:1069800010B44FF010144FF448010022C0E9004148
:10699000C0E902225DF8044B704700BF014800F0D7
:1069A00021BF00BF406C0020F8B500250D4F2E46DA
:1069B00001E0142D14D0A9B2384602F075FD01355E
:1069C00004460028F5D000F0B1FD0028F1D02046A3
:1069D00000F0B6FD022804BF0136F6B2142DEAD14C
:1069E0003046F8BD4865002070B58E881B480C46BF
:1069F00094B0314602F058FD23881A2B05D01F2B86
:106A00001CD0102B0FD014B070BD054600F090FDC7
:106A10000028F8D0284600F08DFD0028F3D1284644
:106A200000F0F8FDEFE7694600F0DCFD0028EAD051
:106A30006A4631460A4801F067FCE4E754F8080F5B
:106A400061686B4603C33046BDF80030ADF80230D4
:106A50006946FFF793FF14B070BD00BF4865002082
:106A600068650020AADF7047ABDF7047ACDF704776
:106A7000ADDF7047AEDF7047B0DF704710B5044B35
:106A8000044640F8043B01F0DFFF204610BD00BF84
:106A9000D02E040010B5054B044640F8043B01F02D
:106AA000D3FF204613F048F8204610BDD02E040036
:106AB00070B57B4B04461B68836196B0043002F0CE
:106AC00001F894F82E30A06913F0320208BF84F860
:106AD0002F2013F00C0308BF84F830300DF10102B1
:106AE000694601F0A7FF94F82F209DF801001507D3
:106AF0000DD09DF8001002F00F0301F00F059D422C
:106B00004FEA12126DD243EA021284F82F2094F851
:106B1000303019070BD003F00F0100F00F058D4244
:106B20004FEA131369D241EA031384F8303094F822
:106B30002E1011F0300340F096800FAD0F93C5E991
:106B40000133C5E903338DF83C10AB610021ADF88A
:106B500009109DF80A10206A1493012363F342017F
:106B60008DF808208DF80A1008B1037873BB94F8EB
:106B7000263013B104F12603129394F83120002338
:106B8000D2070893079358BFE38AADF81C3004F18D
:106B9000080004F12F01CDE9050154BF1846E08A31
:106BA000ADF82000294604F13203E569099505AAEC
:106BB0000020FFF757FF054628B994F8253043BB5E
:106BC000237D002B64D0284616B070BD109019F0BC
:106BD000C2FD02AB80B2ADF84400ADF8460013939D
:106BE000C5E74FEA111101D191428CD30A462B46D9
:106BF00043EA021284F82F2089E74FEA101001D1EE
:106C0000984290D30346294641EA031384F8303072
:106C10008DE7ADF80D009DF80E2094F82F600C90D4
:106C2000012363F3420242F608118DF80E208DF81D
:106C3000123004AA0223ADF8101003A90D90ADF88C
:106C40003030ADF834300A9204F124030B910DF189
:106C500002020AA98DF80C600E93FFF705FF0028C9
:106C6000AED00546AFE70F4B8DF805200FAD1B7872
:106C70008DF80430022000230F938DF80600C5E93B
:106C80000133C5E90333AB618DF83C1001AB5DE71F
:106C90002146054800F066FF284616B070BD00BFCB
:106CA00044650020C42E0400886900202DE9F041CD
:106CB0000B888E88502B8AB00C46054609D0512B84
:106CC00004D18B79012B19D0022B26D00AB0BDE854
:106CD000F081CB88428E9A4235D0EA8E9A42F5D125
:106CE0006B6D002BF2D095F84420648A920700F176
:106CF0008A802246294630469847E7E7836C002B76
:106D0000E4D090F84420520701F108076CD43A46C9
:106D1000294630469847A379D6E7A27B042A46D075
:106D2000062A20D0012AD1D1EB6C002BCED095F8C9
:106D30004420170704F1080400F1A58022462946E3
:106D400030469847C2E7076D002FC6D090F8443010
:106D5000D90768D404F11208238A424629463046EE
:106D6000B847E388B9E7EA6B002AAFD0002202A94E
:106D70003046CDE90222CDE90422ADF80C208DF891
:106D80000830FFF779FE2C6D54B195F84430D807E0
:106D900000F19280B5F84230EA6B30462946A047B0
:106DA000E86B10F077FB0023C5E90F338EE7E86B43
:106DB000002878D0B5F84010278A628A07EB020CC9
:106DC00000234FF0020E8C45CDE90633CDE90833A0
:106DD0008DF818E039DD40F20913ADF81C3006A932
:106DE0003046FFF749FE71E703211A46009106ABD2
:106DF00008213846CDE90665089713F0E3FA002824
:106E000089D1AB6C83E7032000211A46009006ABC2
:106E10000846CDE90665089413F0D4FA00287FF4FB
:106E200055AF6B6D65E7218A069604F112080423BD
:106E300000933A46404606ABCDE90881079513F02A
:106E4000C1FA00288DD12F6D86E79DF81EC0ADF8E0
:106E50001C3004F114014CF001033844ADF8222039
:106E60008DF81E300991ADF8207018F061FD238A6D
:106E7000618AB5F842200B449BB2934238BF134657
:106E8000A5F84230ABE703211A46009106AB0E216C
:106E90002046CDE90665089413F094FA00287FF4A3
:106EA00015AFEB6C4AE74FF4806010F0D9FA4FF45D
:106EB0008061C5E90F017FE7E86BB5F842100696DF
:106EC00004230093224606ABCDE90750099113F045
:106ED00079FA00287FF464AF2C6D5BE72DE9F04F61
:106EE0000F464FF6FF718F4289B0064615461C4685
:106EF00026D0F18A96F82E308C4228BF0C46DB064D
:106F000015D40DF1100B8C4228BF0C464FF0000831
:106F1000718EADF810405A464FF6FF700595ADF8EA
:106F20001280FFF7A3FD404609B0BDE8F08F394855
:106F3000394602F0A1FA08B1F18E31B9F18AE0E7E1
:106F4000344802F0A5FA0746D3E7002002230DF1EA
:106F5000100BADF81200ADF810305A460DF10E03CB
:106F600038460593FFF784FD43F2014398424FD022
:106F700000284AD19DF80E8008F00108B8F1000FF2
:106F800046D02448394602F08FFA8246A0B300F07A
:106F9000D9FA033883B2002CC5D0CDF804804FF065
:106FA0000009984605E0BDF80E30E41AA4B21D446D
:106FB00044B3504600F0E4FAA04503464246594621
:106FC00028BF22463846BBB1ADF80E204FF0010273
:106FD000738E8DF812200DF10E02CDE90625CDF845
:106FE00013908DF81790ADF81030FFF743FD00288F
:106FF000D9D0504600F0CEFA4FF00008404609B014
:10700000BDE8F08FDDF804808DE700F00108B5E7FA
:10701000F18A78E74865002010B5154B044640F822
:10702000043B01F019FD134A0023127884F8443020
:1070300014200321A384C4F82630C4F82A3084F82D
:107040002E30E082C4E90F33C4E91233C4E91433AB
:1070500084F831102375A3612362E361638663635F
:10706000238784F82F2084F83020204610BD00BFED
:10707000D02E0400C42E040070B44E68164A8660F8
:107080000260D1E90262154B154D1C784560026122
:10709000142500220321C0E90F22C0E91222C0E911
:1070A0001422C660C58280F8311080F84420027531
:1070B000826102628284C0F82620C0F82A2080F80B
:1070C0002E20C26142864263028780F82F4080F8FA
:1070D000304070BC704700BFD02E0400C42E0400A6
:1070E000182F040010B4D1E90142CB680361C0E954
:1070F00002425DF8044B70478069704701230375B5
:10710000704700BF80F82E10704700BFC1827047E3
:1071100041B190F83130C182002262F3000380F85F
:107120003130704790F83130012262F3000380F86B
:107130003130704780F82F1080F83020704700BF42
:1071400090F84430016562F3000380F844307047E2
:1071500010B490F8443090F83140C164003918BF41
:10716000012161F3041462F3C30380F8314080F815
:1071700044305DF8044B70470162704751F8322F7C
:10718000026049684160704730B5C48A83B0944258
:1071900023460D4628BF1346418E019500246A46BA
:1071A0004FF6FF70ADF80030ADF80240FFF75EFC1F
:1071B00018B9BDF8000003B030BD204603B030BDA3
:1071C00030B5C38A85B00A46022B28BF0223418E00
:1071D000ADF8062000240DF1060502AA4FF6FF7057
:1071E000ADF80830ADF80A400395FFF73FFC18B939
:1071F000BDF8080005B030BD204605B030BD00BF69
:1072000090F82E3013F0100301D11846704730B5B6
:10721000044685B011480D4602F02EF910B1E18EFA
:1072200011B9084605B030BD0DF10603284600240B
:10723000022502AA0393ADF80A40ADF80850FFF703
:1072400017FC43F20143984206D008B99DF80600A6
:1072500000F0010005B030BD2046E3E7486500209E
:1072600010B490F82E4014F0100403D05DF8044BD5
:10727000FFF734BE20465DF8044B7047A1DF70472E
:10728000A3DF7047A4DF704700238383704700BFEC
:10729000006A00F0E3B800BF808B70472DE9F04131
:1072A0000B88CE88382B86B00C46054606D0392B85
:1072B00066D0362B43D006B0BDE8F08100F124073C
:1072C000002E36D10A8A3846314603F061F894F828
:1072D0000C80B8F1010F2CD0B8F1040FEBD1286A63
:1072E00000F0BCF801465C4802F0DEF800F02AF934
:1072F0002A8E053883B2934228BF1346002B00F034
:107300009A80218AE289286AAC8B8DF80D600A4444
:10731000E96A05918DF80C80ADF81230ADF81020B7
:10732000ADF80E4000F09AF803A9FFF7A9FF002876
:10733000C1D0384603F044F806B0BDE8F081006AD9
:1073400000F08CF80146444802F0AEF800F0FAF87C
:1073500007466EBB05F12406E289304604F11001B0
:1073600003F016F82B8E2BB1F81EE38980B201389A
:10737000834255DA304603F023F806B0BDE8F081C9
:107380000B7B012B1AD0022B95D1836B002B92D053
:1073900090F83C208F8892071FD401F11006E289F3
:1073A00031462846984761893846FFF76BFF82E7E8
:1073B00005F12407384603F003F8BDE7436B002BC3
:1073C0003FF479AF90F83C20D10717D404F11006B0
:1073D000E2893146284698476DE7C989039004F150
:1073E000100603201A46009003AB3046CDE9046135
:1073F00012F0E8FF0028D6D1AB6BD0E7E18903900B
:1074000004F1100603201A46009003AB3046CDE984
:10741000046112F0D7FF00287FF44DAF6B6BD7E704
:10742000286A00F01BF86A8EA98B92B2FFF726FF3C
:1074300000289FD13FE7AA8B286AADF80E2040F2C2
:107440000511ADF80C10CDE9043300F007F803A9DD
:10745000FFF716FF6DE700BF486500208088704782
:1074600076DF70478FDF704790DF7047B1DF70477E
:10747000B5DF704710B5074B03600446806A10F013
:1074800095FEE06A10F092FE206B08B110F08EFEBF
:10749000204610BDE82E040010B5094B03600446D9
:1074A000806A10F083FEE06A10F080FE206B08B165
:1074B00010F07CFE204612F03FFB204610BD00BFBE
:1074C000E82E040070B504460D4692E80300A5803E
:1074D0000E0CA061A183144DA67717201B2156899D
:1074E0002560E0809589D089E181D179658101228B
:1074F00022752274A08161741846194626819DF870
:10750000105010F071F82946A062284610F06CF86F
:107510004FF4885100234FF6FF72E182E0626282ED
:1075200023636375204670BDE82E0400007D70471C
:10753000407D7047C07D113818BF0120704700BFE3
:10754000407C7047C0887047008970474B7D10B4FD
:107550004BB11F310C688A888B79046082805DF89A
:10756000044B837170471831F4E700BF08B513214D
:107570008088FFF775FFB0FA80F0400908BD00BFB2
:1075800008B56621806A10F089FC003818BF012018
:1075900008BD00BF08B500231A461946806A10F0DE
:1075A00055F8003818BF012008BD00BF818800F1E0
:1075B0001F02407C02F04ABF38B50A4605460C4619
:1075C0008188407C02F02EFF2146012051F8483F7F
:1075D000C5F81F308B888A7985F82520A5F82330D7
:1075E000687538BD38B50A4604460D4600F11801E5
:1075F000407C02F061FF607550B1294651F8483F68
:10760000C4F81F308B888A7984F82520A4F82330A9
:1076100038BD00BF10B5447D24B100F11F01407C8E
:1076200002F028FF204610BD70B50B88113B82B0D8
:107630000C460546462B2BD8DFE803F0383B2A2AB8
:107640002A2A2A2A2A422A2A2A2A2A2A50585E64C0
:107650002A2A2A2A2A2A2A2A2A2A2A2A2A2A2A2A8A
:107660002A2A2A2A2A672A942A2A2A2A2A2A2A2AD3
:107670002A2A2A2A2A2A2A2A2A2A2A2A2A246A2A30
:10768000752C84000023A8881A461946FFF7EEFEE1
:1076900002B070BD8B79002BFAD1006BAB7500285E
:1076A000F6D01A4619460FF0D1FFF1E70023037513
:1076B000EEE74B8903818B894381CB898381E7E79F
:1076C0000B7AC375112BE3D0818800F11F02407C37
:1076D00002F0AAFF03460028DAD1D4E7002301A96B
:1076E0008088ADF80430FFF7BDFED1E70B7A002BA0
:1076F000CED14B7A0374CBE7002211468088FFF786
:10770000B3FEC5E70B89C381C2E74B89C380BFE7DE
:10771000006B0123AB750028BAD000231A46194626
:107720000FF094FFB4E7417C164801F0B5FEE38802
:107730000146994228BF194689B2A888E980FFF717
:1077400097FEA5E78B79002BA2D0002600231A46CE
:107750001946A86A0FF07AFF0136A279F3B29A426D
:10776000F4D895E78B7A002B92D0002600231A4696
:107770001946E86A0FF06AFF0136A27AF3B29A421C
:10778000F4D885E74865002070B58AB086880B4636
:1077900006A84FF42851144605934FF6FF7501F0E3
:1077A00065F90120CDE90105059B0094314606AA43
:1077B000044800F073F8044606A801F045F9204695
:1077C0000AB070BD8869002010B50446043002F08C
:1077D0007BFD034B236000232375204610BD00BFB3
:1077E0000100FFFF017D01B1704710B50446043070
:1077F00002F074FD0123237510BD00BF007D7047AA
:107800000B88322B10B504D0332B1ED0302B0FD069
:1078100010BD4A8932B100230133DBB29342FBDB56
:10782000CB881BB3041D2046BDE8104002F0C8BD44
:10783000CB88041D002BF6D14B89002BF3D00A31E5
:1078400020460A2202F0A4FDEDE7CB88002BE9D107
:107850004A89002AE6D002EB42025200041D02329D
:1078600092B20A31204602F093FDDCE702EB82027D
:10787000F3E700BFA0DF704710B5044600F5F870CD
:1078800002F022FD2046F822002118F079F8F822B3
:10789000A018002118F074F8204610BD2DE9F0471B
:1078A00082B00546BDF82C60BDF830402048ADF8E8
:1078B0000460BDF828A0ADF80640904699460F46F2
:1078C00001F0F2FD05F5F875064603E0FFF73CFE12
:1078D0000FF0AAFD284602F059FD04463046002C60
:1078E000F4D10121284602F0F9FC524649462846C7
:1078F00002F010FD08F10401384601AAFFF7BAFFB3
:1079000030B1284602F0F4FC204602B0BDE8F08712
:107910004FF4FA71284602F003FD20EAE07428468D
:1079200002F0E6FCA4B2204602B0BDE8F08700BF3A
:10793000486500202DE9F04F8F880D8885B0884676
:1079400004463946864801F0AFFDA5F11003012B2E
:10795000814640F2908094F854203AB30026334692
:107960001633502D54F823A069D0512D1AD198F810
:107970000630B8F808B0022B53D0BBF1000F11D07D
:1079800051466846FFF7FAFBBDF800305B4559D019
:10799000514602A8FFF7F2FBBDF80C305B4551D011
:1079A00094F854200136F3B29342D9D394F84C3171
:1079B000002B00F0D18004F5A679002604E094F8AD
:1079C0004C310136B34220DD59F8040FFFF760FC5B
:1079D000B842F4D1382D03D0392D01D0362DEED157
:1079E000B8F80AA0BAF1000FE9D0D9F800B05846AB
:1079F000FFF752FC5045E2D158464146FFF74EFC96
:107A000094F84C310136B342DEDC112D55D0352DC2
:107A100004D1B8F80A30002B40F08F8005B0BDE8E3
:107A2000F08F98F80E30062BA7D1DAF800305046C8
:107A3000DB68414698474846FFF77CFDB0E7B8F859
:107A400006B09AE7DAF800305046DB6841469847BE
:107A50004846FFF76FFD0028A2D0502DA0D1514617
:107A600002A8FFF78BFBBDF80C305B4598D1484668
:107A7000FFF79CFD94E72378002B3FF46CAF0026C2
:107A8000112D33460CD004EB830339465868036844
:107A90005B68984701362278F3B29A42F3D85AE7E6
:107AA00004EB83033946586803681B68984701361E
:107AB0002278F3B29A42F3D84DE7D3B10026334689
:107AC00005E094F84C210136F3B29A4211D904EB47
:107AD0008305D5F85001FFF7DBFBB842F1D1D5F8AB
:107AE0005001FFF7D1FB013694F84C21F3B29A42D2
:107AF000EDD894F8F820002A90D000252B4604EB0E
:107B00008303D3F8FC008388BB420AD00135EBB273
:107B1000934283D204EB8303D3F8FC008388BB42F7
:107B2000F4D103681B689847013594F8F820EBB24C
:107B30009342E4D305B0BDE8F08F04F5F874B8F8CB
:107B40000C20204608F1100102F022FC204605B06E
:107B5000BDE8F04F02F034BC112D7FF458AFC8E7F8
:107B60004865002090F85420272A0CD810B403460A
:107B700002F11604013280F8542043F82410012049
:107B80005DF8044B70470020704700BF0378132B4B
:107B900006D800EB83020133037001205160704767
:107BA0000020704778DF70477ADF7047054A034648
:107BB00092E80300002283E80300C3E9022218468A
:107BC000704700BFF02E040008B5FFF7EDFF08B1C5
:107BD000002008BDFFF7E6FFB0FA80F0400908BDBD
:107BE000F8B500250D4F2E4601E0142D14D0A9B292
:107BF000384601F059FC013504460028F5D0FFF75E
:107C000095FC0028F1D02046FFF79AFC012804BF1C
:107C10000136F6B2142DEAD13046F8BD4865002091
:107C2000704700BF8ADF704730B40D4CC4621F2517
:107C3000002250248584A025C0E91122C0E90F222A
:107C4000A0F84650A0F84840006230BC826202862C
:107C500080F838204263C264A0F85020704700BF0B
:107C6000000180002DE9F04F10468DB016460C46FD
:107C700000F018FFC5B2102D4FD0B66807220623BA
:107C8000A16994F81C9001918DF80D208DF80C30AD
:107C9000ED080DF10C080DF10E0A0027B9F1010FE6
:107CA0000A97CDE90477CDE90677CDE90877CDF8D5
:107CB0002B700ED998F8000001994B464A78824201
:107CC0000FD00A78D4432344013213F0FF03114448
:107CD000F4D108F10108C245E0D100200DB0BDE8A3
:107CE000F08F11F8024B013CE4B2224604A817F0D1
:107CF0001FFE0DF1100B1CB9EBE714F0FF04E8D0E8
:107D000058462A46314617F005FE641BAB4400284E
:107D1000F3D101200DB0BDE8F08F04360322022319
:107D2000AEE700BF2DE9F0430B888E88103B87B08B
:107D30000D4604460D2B2CD8DFE803F077072B2BDC
:107D40002B2B2B2B2B2B2B842B2E836AF340DB0727
:107D50001FD55648FEF728FED8B9A36A94F82C2000
:107D6000012505FA06F623EA0606A6628AB994F802
:107D70002D3073B11F232462A38404F1200104F188
:107D80004400FFF74FFF20B9494801F0A5FB84F8F4
:107D90002C5007B0BDE8F08390F92E2091F91B30EC
:107DA0009A423ADC90F8383001F108080BB3DFF85A
:107DB0000491002602E0D6B2B34218D9636BCDF825
:107DC000089003EB061302AA59680391D3E90273E2
:107DD0004146204605930497FFF744FF074602A853
:107DE00000F032FE94F83830721C002FE3D09E422F
:107DF00013D094F82F30002B49D095F82430012B64
:107E00000BD9296A4A78FF2A30D00A78D043034434
:107E1000013213F0FF031144F4D104F120010020DA
:107E2000FFF700FF07B0BDE8F083CB7B022BB0D19A
:107E3000836A012202FA06F633430022836280F845
:107E40002C20A6E70B7A012BA3D1002580F82C501B
:107E5000174801F055FB226C002A9AD0009502AB1E
:107E600029462846029512F0ADFA92E711F8025B16
:107E70006A1ED2B2022A28BF022202A817F058FDB9
:107E8000012DCAD0228EBDF808309A42C5D1E26BCE
:107E9000002A3FF47EAF01230093404602AB242129
:107EA000CDF8088012F08EFA73E700BF5865002005
:107EB00048650020182F040046DF70477FDF7047B9
:107EC00080DF704781DF704785DF704786DF70474E
:107ED00038B51C460D4603461146284622469847AB
:107EE00034B1014600222846BDE83840FFF7E8BF1C
:107EF00038BD00BF10B50C4682B003466946204627
:107F000098476A4620460121FFF7DAFF02B010BD0C
:107F100010B50446083002F0CFFD074B2360032262
:107F200000232271C4F81034C4F81434C4F818348F
:107F3000C4F81C34204610BD3507100330B5044684
:107F4000ADF55F7D00F108058F4802F049FD08217D
:107F5000284602F0B5FD684602F0BCFD68460821DF
:107F600002F0BCFD6946284602F05AFD04F54F7147
:107F70004122684602F0C0FD684602F0B9FD94F85F
:107F80005C0394F85B2394F83D1394F83E3384F833
:107F90003D0384F83E2394F85A0394F8592394F847
:107FA0003F5384F85C1384F85B3394F8401394F8DF
:107FB000413384F83F0384F8402394F8580394F83D
:107FC000572384F85A5384F8591394F8425394F879
:107FD000431384F8410384F8583394F8560394F813
:107FE000443384F8422394F8552384F8575384F893
:107FF000430384F8442384F8553384F8561394F8E3
:10800000451394F8540394F8532394F8463384F8B2
:10801000450384F8462394F8520394F8512394F8C6
:10802000475384F8541384F8533394F8481394F85E
:10803000493384F8470384F8482394F8500394F8AC
:108040004F2384F8525384F8511394F84A5394F808
:108050004B1384F8490384F8503394F84E0394F892
:108060004C3384F84A2394F84D2384F84F5384F812
:108070004B0384F84C2384F84D3384F84E1394F862
:108080005D1394F87C0394F87B2394F85E3384F8B2
:108090005D0384F85E2394F87A0394F8792394F8C6
:1080A0005F5384F87C1384F87B3394F8601394F85E
:1080B000613384F85F0384F8602394F8780394F8BC
:1080C000772384F87A5384F8791394F8625394F8F8
:1080D000631384F8610384F8783394F8760394F892
:1080E000643384F8622394F8752384F8775384F812
:1080F000630384F8642384F8753384F8761394F862
:10810000651394F8740394F8732394F8663384F831
:10811000650384F8662394F8720394F8712394F845
:10812000675384F8741384F8733394F8681394F8DD
:10813000693384F8670384F8682394F8700394F82B
:108140006F2384F8725384F8711394F86A5394F887
:108150006B1384F8690384F8703394F86E0394F811
:108160006C3384F86A2394F86D2384F86B03012040
:1081700084F86F5384F86E1384F86C2384F86D339D
:108180000DF55F7D30BD00BFDC6C00200B7803F087
:10819000FE03042B01D00020704770B515468CB04B
:1081A0000C462022002104A817F0EAFB2868696821
:1081B000AA68EB686D460FC59DF800109DF80F206A
:1081C0009DF801609DF80E509DF802008DF80F108B
:1081D00023469DF80D108DF800209DF803208DF8A2
:1081E0000E608DF801509DF80C609DF804508DF8DC
:1081F0000D008DF802109DF80B009DF805108DF80C
:108200000C209DF80A208DF803608DF80B508DF836
:1082100004008DF805208DF80A109DF8061033F83B
:10822000042FADF810209B789DF809209DF81D00C3
:108230009DF810609DF81F508DF809108DF80620EC
:108240009DF811109DF81E208DF81D309DF8073007
:108250008DF812008DF81F609DF808009DF81360DE
:108260008DF810508DF81E109DF81C509DF81410BC
:108270008DF811208DF808309DF81B209DF81A30DC
:108280008DF807008DF81C608DF813509DF815606F
:108290008DF81B108DF8142068468DF815309DF868
:1082A00019109DF817209DF818309DF816508DF87C
:1082B00018208DF816108DF817308DF81A608DF88B
:1082C0001950FFF7F9FD62789DF82F309DF82E00C8
:1082D0009DF82D108DF821009A428DF8221004F19E
:1082E000010404D0012080F001000CB070BD627860
:1082F000C3B29A4204F10104F4D16278CBB29A423B
:10830000F0D10020EFE700BF08B5137CDB0758BFB2
:108310001C32084602F11201FFF7D6FDB0FA80F0D8
:10832000400908BDF0B58F880E46ADF56B7D04465B
:108330003946464801F0B8F83388133B0546072B09
:108340002FD8DFE813F03E005F006D002E002803F9
:10835000870008003100337AB3B9737B9B070ED4D2
:10836000294602A8FFF7F2F80299BDF80C209DF803
:108370000E3084F80C34C4F80614A4F80A242846F5
:1083800004F2BE31FFF718F9D4F818244AB1307A54
:108390000D9002230021009308460CAB0C9712F0BD
:1083A00011F80DF56B7DF0BDD4F81C24002AF8D02F
:1083B00001230021009308460CAB0C9712F002F841
:1083C000EFE704F2BE3304F2DA320C9304F2F63330
:1083D00000251092119304F23D3204F27E330F9285
:1083E0001393CDE90D551295FFF7AAF801280CBF9C
:1083F00022462A460CAB29463846FFF75FFD0DF5AD
:108400006B7DF0BD0CA9FFF7EDF80346002800F0E6
:10841000D2820CA9384600231AAAFFF757FDC0E7FD
:10842000D4F810140029BCD0B37B094A03F001032F
:108430000F930423CDE90C1706F1080000930621E1
:108440000CAB0E9011F0BEFFABE700BF48650020FB
:10845000D17E020094F87E3394F89D2394F87FC374
:1084600094F89C6394F8805394F89B0384F89D33AC
:10847000042194F89A3384F87D1384F87E2394F8C9
:10848000811394F8822384F89CC384F87F6394F862
:1084900099C394F8836384F89B5384F8800394F819
:1084A000985394F8840384F89A1384F8813394F8E9
:1084B000971394F8853384F8992394F8962384F8D5
:1084C00082C384F8986384F8835384F8970384F80C
:1084D000841384F8852384F8963394F8862394F8DB
:1084E000953394F887C394F8946394F8885394F878
:1084F000930394F8891384F8952384F8863394F8C9
:10850000922394F88A3384F894C384F8876394F8A8
:1085100091C394F88B6384F8935384F8880394F898
:10852000905394F88C0384F8921384F8892394F878
:108530008F1394F88D2384F8913394F88E3384F854
:108540008AC384F8906384F88B5384F88F0384F88B
:108550008C1384F88D3384F88E2394F89E2394F83A
:10856000BD3394F89FC394F8BC6394F8A05394F877
:10857000BB0394F8A11384F8BD2384F89E3394F8C8
:10858000BA2394F8A23384F8BCC384F89F6394F8A8
:10859000B9C394F8A36384F8BB5384F8A00394F898
:1085A000B85394F8A40384F8BA1384F8A12394F878
:1085B000B71394F8A52384F8B93394F8B63384F844
:1085C000A2C384F8B86384F8A35384F8A41384F88E
:1085D000B62384F8A53384F8B70394F8A60394F877
:1085E000B51394F8A72394F8B43394F8A86394F8D7
:1085F000B35384F8B50384F8A61394F8A90394F848
:10860000B21384F8B42384F8A73394F8AA2394F817
:10861000B13384F8B36384F8A85394F8AB6394F847
:10862000B05384F8B20384F8A91394F8AC0394F817
:10863000AF1384F8B12384F8AA3394F8AD2394F8E7
:10864000AE3384F8AD3384F8AE2384F8B06384F895
:10865000AB5384F8AF0384F8AC130CA802F03AFAD9
:108660000CA8082102F03AFA04F27D310CA841224C
:1086700002F054FA0CA904AA202304F1080002F025
:10868000FDF90CA802F034FA9DF810109DF82F00A7
:108690009DF811309DF82E209DF812609DF82D5008
:1086A0008DF810008DF82F109DF813009DF82C10F8
:1086B0008DF811208DF82E309DF814209DF82B3068
:1086C0008DF812508DF82D609DF815509DF82A6098
:1086D0008DF813108DF82C009DF816109DF82900C8
:1086E0008DF814308DF82B209DF817309DF8282038
:1086F0008DF815608DF82A508DF816008DF817202A
:108700008DF828308DF829109DF818109DF8270055
:108710009DF819309DF826209DF81A609DF8255087
:108720008DF818008DF827109DF81B009DF8241077
:108730008DF819208DF826309DF81C209DF82330E7
:108740008DF81A508DF825609DF81D509DF8226017
:108750008DF81B108DF824009DF81E109DF8210047
:108760008DF81C308DF823209DF81F309DF82020B7
:108770008DF81D608DF822508DF821108DF81F2086
:108780008DF820308DF81E0094F87E0394F89D1328
:1087900094F87F2394F89C3394F8806394F89B5367
:1087A00084F89D0384F87E1394F8810394F89A1357
:1087B00084F89C2384F87F3394F8822394F89933C7
:1087C00084F89B6384F8805394F8836394F89853F7
:1087D00084F89A0384F8811394F8840394F8971327
:1087E00084F8992384F8823394F8852394F8963397
:1087F00084F8986384F8835384F8841384F8962368
:1088000084F8853384F8970394F8860394F89513D5
:1088100094F8872394F8943394F8886394F89353E6
:1088200084F8950384F8861394F8890394F89213D6
:1088300084F8942384F8873394F88A2394F8913346
:1088400084F8936384F8885394F88B6394F8905376
:1088500084F8920384F8891394F88C0394F88F13A6
:1088600084F8912384F88A3394F88D2394F88E3316
:1088700084F8906384F88B5384F88C1384F88E23E7
:1088800084F88D3384F88F0394F89E0394F8BD1315
:1088900094F89F2394F8BC3394F8A06394F8BB53E6
:1088A00084F8BD0384F89E1394F8A10394F8BA13D6
:1088B00084F8BC2384F89F3394F8A22394F8B93346
:1088C00084F8BB6384F8A05394F8A36394F8B85376
:1088D00084F8BA0384F8A11394F8A40394F8B713A6
:1088E00084F8B92384F8A23394F8A52394F8B63316
:1088F00084F8B86384F8B70384F8A41384F8B62323
:1089000084F8A53384F8A35394F8A65394F8A723C6
:1089100094F8B43394F8B50394F8A81394F8B363B7
:1089200084F8B55384F8B42394F8A95394F8AA238F
:1089300084F8A73394F8B13394F8B0C384F8A6034D
:1089400084F8B31394F8B20394F8AB1384F8A863D3
:1089500084F8B25394F8AC6394F8AF5384F8B1231D
:1089600084F8AA3394F8AD2394F8AE3384F8A903BD
:1089700084F8B013384604A984F8ABC384F8AF6315
:1089800084F8AC5384F8AE2384F8AD33FFF79AFA39
:108990000DF56B7DF0BDD4F81424002A3FF401AD31
:1089A0000223002100930C920CAB064A0D97084657
:1089B00011F008FDF5E438461A461946FFF786FA25
:1089C000EFE400BFF57E0200A8DF7047704700BFEC
:1089D00030B5044683B0083000F074F804F10C019F
:1089E0000DF106020120FFF7EFFF054628B9044B01
:1089F00004481C602146FFF7C9F8284603B030BD83
:108A0000446500208869002030B44C68C460D1E916
:108A10000241054A054D0260054A8560C0E90441EE
:108A2000426030BC704700BF002F0400182F0400C4
:108A30000000111183790B70C3791370704700BF68
:108A400062DF704763DF7047704700BF10B50446B0
:108A500011F072F8204610BD034A02600022C0E9FE
:108A60000222827182807047182F040010B4054CD6
:108A70008180002201210460C0E902225DF8044BDC
:108A800081717047182F0400002210B4044C046058
:108A900081605DF8044B82718280C260704700BFC4
:108AA000182F04008379012B0AD0826832B9C2687A
:108AB00022B9012B8CBF8020002070478020704796
:108AC000102070472DE9F047857982B0002D47D1FD
:108AD000C7680646002F47D010200EF0C1FC824622
:108AE000384617F038FE441E30B3DFF88490A846AD
:108AF00004E00134023C1FD4102D1DD017F804C02F
:108B0000BCF12D0F07EB0402F3D099F80030ADF85B
:108B100005808DF8043012F8013C8DF804301022E5
:108B2000002101A88DF805C017F0D0FE6B1C023C97
:108B30000AF80500DDB2DFD5C6F808A0BAF1000FCB
:108B40000ED0B11D5046FFF77BFFB168321D1020DB
:108B5000FFF778FFB0FA80F0400902B0BDE8F08777
:108B6000012002B0BDE8F087D0F808A0E6E700BF1A
:108B70000C2F04004DDF70474EDF70474FDF70470A
:108B800050DF70474BDF704710DF70477CDF704766
:108B90007DDF704760DF704769DF704761DF7047D6
:108BA00066DF704767DF7047704700BF042011F031
:108BB000F3BE00BF30B5224C224D83B0D4F830074D
:108BC0004FF0FF310FF06AF90028F7D0C5B101A8C6
:108BD000FFF7D8FF0528F1D00028F8D1019B032B1F
:108BE0001BD8012BF3D918460EF024FBEFE70A2B14
:108BF00004D0092B21D00B2B02D1012007F044FF18
:108C000001A8FFF7BFFF0528D8D00028F8D1019BA5
:108C1000A3F10902022AF3D8E9E7A3F10902022A23
:108C2000D5D80A2B04D0092B05D00B2BCFD101208E
:108C300007F02AFFCBE70220FAE70220DEE700BFB9
:108C400048650020357203002DE9F04F2DED028BB1
:108C50004FF4FA7089B00EF003FCB24E00F1080335
:108C600008EE103A054606F5F16706F5C86AD6F82B
:108C70002C074FF0FF310FF011F90028F7D04FF417
:108C8000FA730DF116012846ADF81630FFF786FF8E
:108C900010B10528F3D1EAE7B5F80490B9F1130F44
:108CA00000F2398106EB8903D3F83C473CB12946F1
:108CB0002046FEF7B9FC9C482946FFF733FB2B887A
:108CC000013B1B2B5AD8DFE813F01601590059005D
:108CD00059005900590059005900590059005900CC
:108CE0005900590059005900B4001C00590059009E
:108CF00059005900590059005900590059005900AC
:108D0000A200DFF838824FF0000B58F8040F30B1A2
:108D1000FEF70CFC18B10BF1010B5FFA8BFBB845A9
:108D2000F3D1BBF1000F06D196F838371BB1594685
:108D3000042011F0F1FD2046FEF702FC012800F0AE
:108D4000EC80F26962B10223002195F808C000931B
:108D5000084606ABCDF81890CDF81CC011F032FBD8
:108D600009F5E77806EB8803586810B103685B687B
:108D7000984706EB88080023C8F804302946504677
:108D8000FDF78CFD69482946FEF7CCFFB6F83A3767
:108D90004B452B8800F0B480102B1ED02CB32046FE
:108DA000FEF7CEFB012803D15E482946FEF738FFC7
:108DB0002046FEF7C5FB02281BD05D48FEF71EFDCE
:108DC00000BB5C482946FEF7B5FDD6F89037002B6E
:108DD0003FF455AF2846984751E7EB7B012BDDD197
:108DE000AB88A6F83A37002CD9D14E482946FEF771
:108DF00017FF51482946FDF7F7FD4D48FEF7FEFCE9
:108E00000028DED04A482946FEF7FAFCD9E7D6F812
:108E10008C27002AB2D00223002195F908C00093C4
:108E2000084606ABCDF81890CDF81CC011F0CAFA70
:108E3000A4E74FF00008D6F83407CDF80080434689
:108E4000424603213D4C10F0AFFB54F8040F30B103
:108E5000FEF76CFB18B108F101085FFA88F8BC4214
:108E6000F3D196F838376BB1B8F1000118BF012182
:108E7000042011F051FD96F838371BB10121042070
:108E800011F04AFD09F5E77806EB8804606820B127
:108E900003685B68984700236360EB7B012B0BBF83
:108EA00096F81A3796F8203796F81B4796F8214718
:108EB0000393342010F03EFE06EB8808039B0094D9
:108EC00018EE102A04464946FEF7FCFA2046C8F878
:108ED0000440FEF735FB012832D0B269002A3FF486
:108EE0004DAF012300210093084606ABCDF8189042
:108EF00011F068FA42E700214846FFF751FE3DE7CE
:108F0000102B3FF46AAF112B7FF448AF4FF6FF737D
:108F1000A6F83A3742E70446D1E6F268002A7FF421
:108F200012AF1DE74865002068650020EC6B00204B
:108F3000406C00208869002058650020806C00206B
:108F4000B268002A3FF41AAF0021009006AB084631
:108F5000CDF8189011F036FA10E700BF38B5044686
:108F6000FEF724FE04F11000FDF70AFD04F12000D5
:108F7000FEF7CEFF04F58860FEF77EFC04F5C860BE
:108F8000FDF790FB04F28460FDF728FB04F2A46077
:108F9000FEF74AFE04F5DF60FEF716FC4FF480533F
:108FA0000025C4F8103716481649174AC4F81407A4
:108FB00040F20113C4F81817C4F81C27A4F820378E
:108FC000A4F8225704F23C702946502216F0D8FC2F
:108FD00001224FF6FF73A4F8245784F82657C4F8EB
:108FE0002C57C4F83057C4F83457C4F89057C4F815
:108FF0008C5784F83827A4F83A37204638BD00BF8C
:10900000010A17000300010117000300F0B5BF4E6D
:1090100080F824178DB080F82527044610F008FE4C
:1090200010F00EFE10F0CCFD3369B949039303A88C
:10903000FFF7AAFD18B1002528460DB0F0BD0120AC
:10904000FFF79AFD0120FFF795FD0120FFF796FD40
:1090500009A8FFF795FD099B9B0705D5AD4BD3F8F4
:109060000435002B00F0FE800023AB4A94F815571E
:10907000049209A90120CDE909330B938DF82450FE
:10908000FFF78AFD0028D6D194F825370B90CDE95B
:109090000900181E18BF012094F824578DF82700E6
:1090A000049A8DF8263009A940208DF82550FFF745
:1090B00073FD0028BFD194F814170990034661F39B
:1090C0000003CDE90A00049A8DF8243009A9A020F4
:1090D000FFF762FD0028AED1D4F810370A900B904C
:1090E000049A099309A9A120FFF756FD0028A2D1EF
:1090F00094F82437002B40F0B98094F82537002BE2
:1091000048D00023B4F81C77049A0993022509A9D2
:109110002320CDE90A338DF82450ADF82670FFF7EF
:109120003BFD002887D1CDE9090094F82577B4F8F4
:109130001E370B90049A8DF8245009A920208DF831
:109140002670ADF82830FFF727FD00287FF473AFB5
:109150000990CDE90A0094F82037049A8DF824503C
:1091600009A922208DF82630FFF716FD00287FF48C
:1091700062AFCDE9090094F821370B90049A8DF87D
:10918000245009A921208DF82630FFF705FD00287D
:109190007FF451AF04A8FFF7FDFC00287FF44BAF2C
:1091A000CDE9070040F0010307A902208DF81C302B
:1091B000FFF7F8FC00287FF43EAF2046FEF704FDE1
:1091C000054600283FF437AF04F12000FEF7B6FE55
:1091D000337D52498DF80830162202A8FFF7D6FCDD
:1091E00000287FF428AF94F82537002B40F08880C2
:1091F0000322002101200EF0B5F9C4F82C07002845
:109200003FF419AF05AB0326CDE900634449454857
:1092100000234FF4A0620FF067F9324600210120CD
:109220000EF0A0F9C4F8300700283FF404AF06ABF5
:10923000CDE900633C493D480023C8220FF054F9B2
:109240003B4B4FF480021A603A4B009300231846C0
:1092500001224FF4807110F051F9C4F8340701F085
:10926000BBF8E9E6022007F00FFCFDE60990CDE926
:109270000A00B4F81637049AADF82630012509A97A
:1092800023208DF82450FFF787FC00287FF4D3AE0D
:10929000CDE9090094F82477B4F818370B90049AB4
:1092A0008DF8245009A920208DF82670ADF82830BB
:1092B000FFF772FC00287FF4BEAE0990CDE90A00EA
:1092C00094F81A37049A8DF8245009A922208DF8B1
:1092D0002630FFF761FC00287FF4ADAECDE9090030
:1092E00094F81B370B90049A8DF8245009A921207B
:1092F0008DF82630FFF750FC00283FF4FEAE9AE6CA
:1093000004F11000FDF74AFB72E700BF7C2F040058
:10931000A98B020000700240006000205C2F040056
:10932000742F0400498C0200782F0400B58B0200D2
:1093300000E100E0AD8B020000B5084B85B01B7D5D
:10934000019108468DF80C3017F005FA019982B2A8
:1093500003A8FFF71BFC05B05DF804FB7C2F04009D
:1093600000B583B008460DF10601ADF80620FFF701
:109370000FFC20B99DF8060003B05DF804FB002047
:1093800003B05DF804FB00BF70B4234B0E460546E6
:109390000FCB85B06C4607C49DF900202380B242F4
:1093A00034D09DF90130B34230D09DF90230B34240
:1093B0002CD09DF90330B34228D09DF90430B3423C
:1093C00024D09DF90530B34220D0FEB19DF907307D
:1093D000B3421BD09DF90830B34217D09DF9093034
:1093E000B34213D09DF90A30B3420FD09DF90B3030
:1093F000B3420BD09DF90C30B34207D09DF90D302C
:10940000B34203D0002005B070BC7047012085F83E
:10941000266705B070BC7047942F040090F92607AA
:10942000704700BF80F83817704700BF70B504461A
:1094300082B0D0F834070D4610F0E2F84FF47A729B
:1094400006460023A90DA80216F042F800230246A2
:109450000421D4F83407009310F0A6F80EB102B03E
:1094600070BD0096D4F8340733463246032110F01D
:109470009BF802B070BD00BF132906D800EB810134
:10948000D1F83C0708B1FEF751B80020704700BF83
:10949000B0F83A07704700BF01290CBFB0F81607B3
:1094A000B0F81C07704700BF13299ABF00EB810179
:1094B000D1F83C070020704710B5064C0021D4F8C5
:1094C00030070EF05FFBD4F82C070021BDE81040F8
:1094D0000EF058BB4865002090F8383703B9704744
:1094E00010B582B0D0F834470FF0EEF900230246F1
:1094F00000932046012110F057F802B010BD00BFC4
:10950000F0B583B0002405462346D0F83407009414
:109510002246032110F048F805F5E76605F5F167E6
:1095200056F8040F20B1FEF701F808B10134E4B297
:10953000BE42F5D195F8383743B1211E18BF01213D
:10954000042003B0BDE8F04011F0E6B903B0F0BD6F
:109550000148FFF703BD00BF4865002000207047A9
:109560003CDF70473DDF704711DF704713DF704706
:10957000B0DF7047B2DF70472DE9F0419EB007467B
:1095800004A8158814460E46FDF7F8FDBDF8103006
:10959000AB4202D01EB0BDE8F081A379043B022BA0
:1095A000F8D939465248FFF77FFF4FF000080223F1
:1095B000394605463046CDE90688CDE908888DF85C
:1095C0001830FDF71DFE06A900286AD03846ADF810
:1095D0001C80FFF7CDFF247B012CDBD1454E41469B
:1095E0003E22304616F0CCF923460DF10E024249D8
:1095F00038460824ADF80E40FFF7BCFF6846294600
:10960000FDF7A4FF00983060BDF804309DF80620F7
:10961000B271B3802846FDF78DFF002849D1354946
:1096200036484FF6FF740B4601311B7883EA14234A
:1096300083EA131242EA042283EA131382EA033212
:1096400082EA431381429CB2EDD12A4B2C489C877D
:109650000021FDF741F82846FDF788FFFF21002093
:10966000FFF780FFB1210020FFF77AFF002891D19A
:10967000FFF77AFF00288DD1224B4FF0FF324FF0D9
:109680001024C3F88020C3F880216069FFF76EFFC3
:1096900000287FF47FAF80F31488606901F082F9BD
:1096A00078E740F2FD133846ADF81C30FFF760FF55
:1096B00070E70AA92846FDF795FF0028AFD01EAB3A
:1096C00013E903000B0C3060B180B37118AC0FCC00
:1096D0000D4FC6F807000AAC7960BA60FB600FCC8A
:1096E00018360FC694E8070086E8070097E700BF22
:1096F00048650020807F0020B47F0020BC7F0020D0
:10970000886B002000E100E0877F002030B585B045
:1097100004460E496846FFF7B7F969462046FFF749
:1097200073F925466846FFF78FF9094B45F8183B52
:1097300008496846FFF7A8F969462846FDF79CFCEA
:109740006846FFF781F9204605B030BDA42F04001C
:10975000EC2F0400C42F040030B5B3B00546FFF76A
:1097600037F918B10446204633B030BD2D491CA846
:10977000FFF78AF91CA906A8FDF77EFC1CA8FFF7D5
:1097800063F906A8FDF7BAFC06A80421FDF7BAFCA8
:1097900006A81421FDF7BAFC06A8FDF789F90446CE
:1097A00098B905F1180018210190FDF7ABFC01985C
:1097B0001721FDF7ABFC01981B490122FDF7C8FCFE
:1097C0000198FDF775F9044628B106A8FDF756F98A
:1097D000204633B030BD154902A8FFF755F902A95C
:1097E0001CA8FDF749FC02A8FFF72EF91CA8FDF7FD
:1097F00085FC02211CA8FDF785FC02211CA8FDF7B1
:1098000087FC1CA8FDF754F9044618B901211CA8CF
:10981000FDF7D6FC1CA8FDF731F906A8FDF72EF9D7
:10982000D6E700BFB42F040079950200D42F0400BE
:10983000C16180F83D207047016380F84220704785
:1098400070B584B0044641F60A016846FFF70EF988
:1098500069462046FFF7D8F86846FFF7F5F8204636
:109860000E4B40F8183B2422002116F089F80C4ECC
:109870000C480D4AE06200232364E36384F844301B
:109880001625052113232046E66184F83D5084F80F
:109890004110226384F8423004B070BD1C300400D3
:1098A0005C2F0400F82F0400003004002DE9F0477D
:1098B0009AB00646FFF78CF88046002846D1336AF6
:1098C000002B4ED0736A002B56D0C6F5275909F1EC
:1098D000270906F1140406F1380706F13C0554F88F
:1098E000043F04A873B3FDF797FB2268B36B09EB41
:1098F00005019A4289B2684608BF42F65021FFF737
:10990000B5F8694604A8FDF7EDFB6846FFF79CF83B
:1099100004A8FDF7F3FB022104A8FDF7F3FB297867
:1099200004A8FDF7F5FB04A8FDF7C2F8824604A8D9
:10993000BAF1000F0ED12A782168FDF725FC04A8A2
:10994000FDF79CF8BC4205F10105C8D140461AB0AC
:10995000BDE8F087FDF792F8D04640461AB0BDE862
:10996000F08710F0D5FE044616F0F5FE736A3462F7
:1099700086F83E00002BA8D110F08AFE044616F0AF
:10998000EAFE746286F83F009FE700BFD0F8D83047
:10999000988980B2704700BF70B582B0064608460D
:1099A0001C460192FDF7A8FB019905462246D0F816
:1099B000D80010F0C7FD844206D9D5F8F0301BB1AD
:1099C000211A89B230469847D5F8E83023B130469D
:1099D00002B0BDE87040184702B070BD08B592B241
:1099E000D0F8D80010F0FCFD08BD00BF00B583B072
:1099F000D0F8D8000DF10702002110F02DFE20B1A3
:109A00009DF8070003B05DF804FB4FF0FF30F9E765
:109A1000D0F8D80010F084BDD0F8C030988980B25A
:109A2000704700BFD0F8C00010F07ABD10B50168D3
:109A30000C4A8C69944282B00BD1D0F8D800012234
:109A40000DF1070110F0CCFD40B19DF8070002B008
:109A500010BD01220DF10701A047F5E74FF0FF30DF
:109A6000F5E700BFDD99020000B583B0D0F8C00073
:109A70000DF10702002110F0EFFD20B19DF8070065
:109A800003B05DF804FB4FF0FF30F9E710B550F874
:109A9000181C0D4A8C69944282B00CD018380122EF
:109AA0000DF10701A04718B19DF8070002B010BDE5
:109AB0004FF0FF30FAE701220DF10701D0F8C000A6
:109AC00010F08EFDEFE700BFDD9902002DE9F04FA9
:109AD00050F8183C83B004463F48D3F828800F461E
:109AE0001646FFF7D5FC3D4B9845054609D0A4F135
:109AF000180033463A462946C44603B0BDE8F04F45
:109B0000604701463448FFF7CFFC8346002850D019
:109B100004F1100948462946FDF772FB002848D099
:109B200094F8CC30002B3CD0D4F8C800C8B31FFA4E
:109B300086FA5246394610F005FDD4F8C8309B89A4
:109B4000804658461FFA83FBFDF7FCFC033883452B
:109B500025DB21482946FFF7A7FC50B3FDF7F2FCAF
:109B6000033882B2104601920DF07AFC834600B3AE
:109B7000019AD4F8C800594610F032FD0346F0B9F6
:109B800058460DF087FC464509D9AAEB08039BB25D
:109B900007EB080229464846FDF762FB58B1B0467C
:109BA00009E03A4629464846B3B2FDF759FB00287A
:109BB000F5D14FF00008404603B0BDE8F08F5A469B
:109BC00029464846FDF74CFB044658460DF062FC1A
:109BD000002CD8D1EDE700BF48650020FD9F0200B2
:109BE0002DE9F04150F8183C84B004463B489E6A89
:109BF0008DF80F10FFF74CFC394B9E42054609D0FB
:109C0000A4F11800294601230DF10F02B04704B05A
:109C1000BDE8F08101463148FFF746FC064650B3E7
:109C200004F1100738462946FDF7EAFA18B394F80C
:109C3000CC30002B49D0D4F8C800002845D00DF115
:109C40000F01012210F07EFCD4F8C8309B898046B9
:109C500030469EB2FDF776FC033886420DDA0120CD
:109C6000D5E7324629463846FDF7FAFA044630462B
:109C70000DF010FCF4B90020C9E718482946FFF799
:109C800013FC0028F7D0FDF75DFCC21E92B210460F
:109C900001920DF0E5FB06460028ECD0019AD4F8BD
:109CA000C800314610F09CFC03460028D9D130464C
:109CB0000DF0F0FBB8F1000FD1D10DF10F022946E4
:109CC00038460123FDF7CCFAA1E72946384601239F
:109CD0000DF10F02FDF7C4FA99E700BF48650020B7
:109CE000FD9F02002DE9F04105683B4BAD6A82B053
:109CF0009D428DF8072065D1044638480E46FFF78F
:109D0000D3FB054600284FD004F1280738463146DA
:109D1000FDF776FA002847D094F8E430002B47D0BE
:109D2000D4F8E000002843D00DF10701012210F023
:109D300009FCD4F8E0309B89804628469DB2FDF7A7
:109D400001FCC31E9D4244DB24483146FFF7ACFBB7
:109D500050B3FDF7F7FB033882B2104600920DF0C6
:109D60007FFB054600B3009AD4F8E000294610F0C6
:109D700037FC68B928460DF08DFBB8F1000F28D1EB
:109D80000DF10702314638460123FDF769FA0CE070
:109D900003462A4631463846FDF762FA044628460D
:109DA0000DF078FB002CE8D1002002B0BDE8F08176
:109DB0003146384601230DF10702FDF751FA02B092
:109DC000BDE8F08101230DF10702A84702B0BDE80C
:109DD000F0810120E9E700BFFD9F020048650020F7
:109DE0002DE9F04F036883B0044641489E6A8846D7
:109DF0001746FFF74DFB3F4B9E42054661D101469A
:109E00003B48FFF751FB0646002855D004F12809CE
:109E100048462946FDF7F4F900284DD094F8E4307F
:109E2000002B41D0D4F8E00000283DD01FFA87FA7B
:109E30005246414610F086FBD4F8E02003463046F7
:109E4000B2F80CB01E46FDF77DFB1FFA8BFB033802
:109E5000834524DB26482946FFF726FB60B3FDF740
:109E600071FB033882B2104601920DF0F9FA834675
:109E700010B3019AD4F8E000594610F0B1FB48BB8A
:109E800058460DF007FBB74209D9AAEB06039BB26F
:109E900008EB060229464846FDF7E2F968B13E465E
:109EA000304603B0BDE8F08F424629464846BBB273
:109EB000FDF7D6F90028F2D10026304603B0BDE800
:109EC000F08F01463B4642462046B44603B0BDE80B
:109ED000F04F604703465A4629464846FDF7C0F909
:109EE000044658460DF0D6FA002CCCD1E4E700BF6A
:109EF00048650020FD9F02002DE9F041036882B013
:109F000004463C489E6A8DF80710FFF7C1FA3A4BA9
:109F10009E420546014663D13648FFF7C5FA06461C
:109F200000284FD004F1280738462946FDF768F984
:109F3000002847D094F8E430002B47D0D4F8E00054
:109F4000002843D00DF10701012210F0FBFAD4F8EC
:109F5000E0309B89804630469EB2FDF7F3FAC31E7F
:109F60009E4245DB23482946FFF79EFA50B3FDF792
:109F7000E9FA033882B2104600920DF071FA0646F3
:109F800000B3009AD4F8E000314610F029FB68B91C
:109F900030460DF07FFAB8F1000F29D10DF107021C
:109FA000294638460123FDF75BF90CE003463246AB
:109FB00029463846FDF754F9044630460DF06AFA52
:109FC000002CE8D1002002B0BDE8F08129463846D7
:109FD00001230DF10702FDF743F902B0BDE8F0815E
:109FE000204601230DF10702B04702B0BDE8F08121
:109FF0000120E8E748650020FD9F02002DE9F04FB1
:10A00000044683B0384890461F460E46FFF74CFA88
:10A01000002856D004F12809054631464846FDF788
:10A02000EFF800284DD094F8E430002B41D0D4F85C
:10A03000E00000283DD01FFA87FA5246414610F052
:10A0400081FAD4F8E02003462846B2F80CB01D4649
:10A05000FDF778FA1FFA8BFB0338834524DB22488F
:10A060003146FFF721FA60B3FDF76CFA033882B28C
:10A07000104601920DF0F4F9834610B3019AD4F81A
:10A08000E000594610F0ACFA00BB58460DF002FA59
:10A09000BD4209D2AAEB05039BB208EB050231468B
:10A0A0004846FDF7DDF868B13D46284603B0BDE8F7
:10A0B000F08F424631464846BBB2FDF7D1F8002842
:10A0C000F2D10025284603B0BDE8F08F03465A467A
:10A0D00031464846FDF7C4F8044658460DF0DAF913
:10A0E000002CD5D1EDE700BF4865002070B584B0E5
:10A0F00004460E4668461E49FEF7C6FC69462046E1
:10A10000FEF782FC6846FEF79FFC1A4B1A4903F1E2
:10A110000802002548334FF47A70C4E906352260FE
:10A1200020626846FEF7B0FC694604F12800FCF79F
:10A13000A3FF6846FEF788FC10496846FEF7A4FCBA
:10A14000694604F18000FCF797FF6846FEF77CFC47
:10A150002046C4E93A55C4F8D850A4F8DC60C4F8E5
:10A16000F050C4F8E05084F8E45004B070BD00BF73
:10A1700050300400603004004030040030300400EF
:10A1800010B50D4B0446D0F8E00023604033A361C6
:10A1900010B103685B68984704F18000FCF76EFC1F
:10A1A00004F12800FCF76AFC2046044B40F8083B09
:10A1B000FEF74AFC204610BD68300400002F040062
:10A1C00010B50F4B0446D0F8E00023604033A36184
:10A1D00010B103685B68984704F18000FCF74EFCFF
:10A1E00004F12800FCF74AFC2046064B40F8083BE7
:10A1F000FEF72AFC20460FF09FFC204610BD00BF52
:10A2000068300400002F040070B5044682B01820A6
:10A210000FF090FC00220546012110F061F928465C
:10A22000B4F8DC10C4F8D85010F06CF92046FEF7F2
:10A23000CFFB054610B1284602B070BD01211E4873
:10A24000FFF72AF904F1280603461021304601964B
:10A250001E46FCF757FF2A4601981121FCF76AFFBA
:10A2600001983146FCF752FF01981449FCF784FF2E
:10A270000198FCF71DFC05460028DCD104F18000A4
:10A280000C210190FCF73EFF01980D490122FCF7DB
:10A2900057FF112201982946FCF74CFF01983146DF
:10A2A000FCF734FF01980749FCF766FF019802B0FC
:10A2B000BDE87040FCF7FCBB486500202830040076
:10A2C000999902002C300400002201214270C0E95B
:10A2D00001220170C2818281704700BF10B504461F
:10A2E000017001B110BD0A200DF07EF9606010BD53
:10A2F000037810B5044643B1002301226370C4E91A
:10A300000133E381A381227010BD40680DF04EFF40
:10A31000F2E700BF002381608281C381704700BFE4
:10A32000037870B504460D46B3B9466801236370DF
:10A330004FF47A720023A802A90D15F0C9F801465E
:10A3400030460DF0ABFD98B9237800264FF0FF356D
:10A350006670A3B9284670BD0322002101200DF0CC
:10A3600001F9064660600028E0D14FF0FF35F1E7C3
:10A37000E58923780026ADB26670002BEAD06068CC
:10A380000DF014FF6660284670BD00BF407870472E
:10A3900038B504468089824228BF0246154619B165
:10A3A000A06815F0C5FAA089E389A26815FA83F3BD
:10A3B000401B9BB22A44A081E381A260284638BD9D
:10A3C000406820B100231A4619460DF03FB9704786
:10A3D000B1DF7047B2DF704708B50F480CF096FD4B
:10A3E0000E490D4807F066F828B10D490A4807F0F4
:10A3F00061F850B108BD0949074807F077F80849E6
:10A40000054807F057F80028F4D1BDE80840044992
:10A41000014807F06BB800BF38820020C430040048
:10A42000D830040070B586B00E46032300210546DF
:10A4300014460093044A0496084603AB039505941A
:10A440000FF0C0FF06B070BD11A7020070B586B056
:10A450000323144606460D460093104603AB044AF8
:10A4600005940721CDE903650FF0ACFF06B070BD80
:10A4700041A8020030B50A4691B089795379039119
:10A4800011790293D378094D094C01910093937887
:10A49000527801280CBF2946214604A816F006F977
:10A4A00004A9044807F07AF811B030BDEC3004007C
:10A4B0001C310400388200202DE9F043D1B00B7824
:10A4C000032B04AF0D460446904668D95A08022A69
:10A4D0005ED14F4A4F49504BDFF84891012818BFD1
:10A4E00011460022381D07F03DFA4B4907F168007C
:10A4F00007F062F907F1CC0611E00246414607F188
:10A50000680007F059FA08F1380229464846FDF775
:10A510003DFE044678BB07F1680007F0C3FA00224D
:10A52000391D304607F0F0FA07F1D0000DC8D7F812
:10A53000DC10D7F8E4407B67D7F8E83097F8E0C044
:10A54000F8663A67B967412207F1EC0107F1880024
:10A55000C7E9204387F87CC015F0EAF907F16800E5
:10A5600007F0CCFA044607F1680044B107F0C4F8DC
:10A570005028D0D1C1E707F1680007F093FA381DE1
:10A5800007F090FA204607F59A77BD46BDE8F083BC
:10A590000024204607F59A77BD46BDE8F083E946DA
:10A5A0008CB08979AB786A780391697902912979BD
:10A5B00001911A4E1A49E878009004AD012C08BFA9
:10A5C0003146284607F1CC0616F070F8124930469D
:10A5D00007F0F2F829463046002207F0A7F90446B2
:10A5E00050B90024304607F05DFA2046CD4607F505
:10A5F0009A77BD46BDE8F083304607F07DF8021E2D
:10A60000EFDD92B24146304607F0D6F9EAE700BFE7
:10A61000D8300400C430040038820020EC3004003C
:10A620001C31040068650020F0B5ADB095799378D1
:10A63000344E1446527803956579029594F804C017
:10A64000CDF804C0304DE478009404AF0C460128E6
:10A650000CBF3146294607F10C0016F027F82B4BAA
:10A6600007F10C0107F13C00002207F07BF907F12C
:10A670003C0007F043FA40B9002407F13C0007F022
:10A6800011FA2046A437BD46F0BD07F13C0007F0A3
:10A6900033F8051E08DD07F13C0007F0CBF9291857
:10A6A00007F13C0007F0A8F907F13C0007F024F897
:10A6B000051E08DD07F13C0007F0BCF9291807F179
:10A6C0003C0007F099F907F13C0007F015F8002865
:10A6D000D2DDC31D23F007036D46ADEB030D82B23F
:10A6E00004A907F13C00C7E9001207F065F920460C
:10A6F000D7E900120323FFF76BFEB0FA80F4640978
:10A70000AD46BAE7EC3004001C310400388200206A
:10A71000F0B5B5B092F84E5092F84A30434E144618
:10A7200092F84920039594F84D50029594F84C50B6
:10A73000019594F84B5000950D463D4904AF012812
:10A7400018BF314607F12C0015F0B0FF394807F16A
:10A750002C0106F0AFFE6E4600284AD1354B07F1BA
:10A760002C0107F15C00012207F0FCF807F15C0006
:10A7700007F0C4F918B9C437B546BD46F0BD50213D
:10A7800007F15C0006F0E6FF5022214607F15C006D
:10A7900006F01EFF0023294627487B61C7E90333E3
:10A7A000C7E90633C7E90833BB62FEF77DFE07F150
:10A7B0000C012022FCF7E8FF3B7B03B307F10C0000
:10A7C00015F0C9FF013082B2C1B207F15C007A60B6
:10A7D00006F0C0FF7A6807F10C0107F15C0006F093
:10A7E000F7FE07F15C0007F05DF9C437B546BD46DA
:10A7F000F0BD07F12C010F4806F0D0FEAEE794F84B
:10A80000491094F84D3094F84E20039194F84A1072
:10A81000029194F84B10019194F84C10009107F1BB
:10A820000C00064915F042FFC8E700BF1C310400C8
:10A83000EC30040038820020486500204C310400D0
:10A840002DE9F043ADB00C4604AF002103230646CA
:10A850001546204607F10A027981FFF7BBFD7B8987
:10A86000E84623B9A437C546BD46BDE8F0830733A3
:10A87000DB08A8EBC3039D460DF11009204607F144
:10A880000A0249460323FFF7A5FD04460028E9D143
:10A89000A979AB786A780391697902912979019154
:10A8A0003D483E49ED780095012E08BF014607F16D
:10A8B0000C0015F0FBFE3A4B07F10C0107F13C00D0
:10A8C000012207F04FF807F13C0007F017F90028C4
:10A8D000C8D0214607F13C0007F08EF807F13C0094
:10A8E00006F00AFF041E08DD07F13C0007F0A2F89D
:10A8F000211807F13C0007F07FF807F13C0006F053
:10A90000FBFE041E08DD07F13C0007F093F8211858
:10A9100007F13C0007F070F807F13C0006F0ECFE90
:10A920007C8980B2A04213D0E1B207F13C0006F06E
:10A9300011FF2246494607F13C0006F049FE07F1A7
:10A940003C0007F0AFF8A437C546BD46BDE8F0832C
:10A95000E31D6D46DB08A5EBC3039D4604A9224613
:10A9600007F13C00796007F027F879687A89484652
:10A9700014F0D0FF08B9AD46E1E707F13C0007F05D
:10A9800075F87B89DB43191807F13C0007F034F8B0
:10A99000AD467C89C8E700BFEC3004001C310400E0
:10A9A00038820020F0B40346186880F3088858689D
:10A9B000FF2464B2EFF30585002D01D1A6460047C0
:10A9C0002546064621273FBAF0B40024002500267C
:10A9D0000027F0B4F92040B2004700BFF0BC704738
:10A9E00038B590F8E8500DB1284638BD012380F8FD
:10A9F000E830044611F0B8FD0028F5D12046BDE846
:10AA0000384000F0ADB800BF10B5044C204600F04F
:10AA1000A3F8002384F8E83010BD00BFDC6C0020F0
:10AA200003680A689A4201D00020704770B5044656
:10AA300084B04FF453700D460CF012FD0646B0B1D1
:10AA40000C4800F0ABF823460435002153F8042BE2
:10AA50000095CDE90161084911F020FC044630461B
:10AA60000CF018FDB4FA84F0400904B070BD002069
:10AA700004B070BDDC6C002079B00300F0B585B087
:10AA800006464FF453700D46174603930CF0E8FC4E
:10AA900078B1044600903A46281D311D03AB11F0F1
:10AAA0007BFC054620460CF0F5FC15B9039805B073
:10AAB000F0BD002005B0F0BD00220260704700BF6D
:10AAC00010B50446084611F0D9FC2060003818BFC4
:10AAD000012010BD00220260704700BF10B504467F
:10AAE000084611F0CBFC2060003818BF012010BDD3
:10AAF00000230360704700BF00B583B004300192AB
:10AB000001AB0A46042111F043FB18B9019803B0C8
:10AB10005DF804FB002003B05DF804FBF0B50446CB
:10AB200083B04FF463700E4617460CF099FC05464F
:10AB300078B1019054F8040B00943A463146012351
:10AB400011F062FA044628460CF0A4FCB4FA84F032
:10AB5000400903B0F0BD00BF002280F8E420704738
:10AB600070B590F8E4400CB1204670BD012380F828
:10AB7000E43005464FF4BF500CF072FC0646002846
:10AB8000F2D03146284610F063FC0446B4FA84F44F
:10AB9000304664090CF07EFC204670BD704700BF53
:10ABA0000146014800F022BBE46D002038B5064B99
:10ABB0001D783DB100242046013400F085FEE0B24E
:10ABC0008542F9D838BD00BFE06D0020407DFF28E8
:10ABD0000AD010B500F01AFE044608B1204610BD98
:10ABE0000FF010FB204610BD00207047407DFF286D
:10ABF0000ED000B583B00DF1070100F05BFE20B16F
:10AC00009DF8070003B05DF804FB4FF0FF30F9E753
:10AC10004FF0FF30704700BF407DFF280FD000B5D8
:10AC200083B001220DF1070100F0FCFD20B19DF879
:10AC3000070003B05DF804FB4FF0FF30F9E74FF079
:10AC4000FF307047407DFF2801D000F03DBE7047C7
:10AC5000407DFF2801D000F0A1BE0020704700BF5A
:10AC6000F8B50646407DFF281CD017465AB10D4660
:10AC7000144600F0A7FD2946224680B1707D00F001
:10AC800069FE241A01D13846F8BD05440FF0BAFA1E
:10AC9000707D00F097FD294622460028EED13F1B2B
:10ACA0003846F1E70020F8BD002A00F097802DE932
:10ACB000F0434B4991F81C9191F81D7191F81E8158
:10ACC00093B01D46064608F1010309F1020014463F
:10ACD000BA1C81F81C0181F81D2181F81E3101A8E0
:10ACE0004222002114F04CFE412D73D9327D8DF8A3
:10ACF00014207A1C204662F07F0440F60832ADF83A
:10AD0000042040F2094540F20122ADF80C50ADF8A4
:10AD100010202425334A8DF81650069209F10103BC
:10AD200004220125DBB28DF81C508DF81F208DF810
:10AD3000302040F2022640F2075240F224658DF89E
:10AD40001E308DF827308DF83130ADF808600223C1
:10AD5000ADF82450ADF82820ADF83820224E8DF8FB
:10AD60000730032508228DF812308DF833308DF826
:10AD70003B30089605238DF82B508DF82C2067F07A
:10AD80007F074FF411660A2540228DF81530ADF883
:10AD90002E608DF8345001A98DF806908DF80E9034
:10ADA0008DF826908DF83A808DF82A7007268DF858
:10ADB0003C2044F2020542228DF840308DF841409B
:10ADC0008DF83F60ADF8425014F0B2FD422013B050
:10ADD000BDE8F083002013B0BDE8F0834220704747
:10ADE000E46D0020200105242402060570B50368E7
:10ADF000184A5B6882B093428DF8071021D105464E
:10AE0000407DFF2823D000F0DDFC0DF10706012472
:10AE10003146224688B1687D00F09CFD241A02D19B
:10AE2000012002B070BD06440FF0ECF9687D00F01F
:10AE3000C9FC314622460028EDD1C4F1010002B020
:10AE400070BD01220DF10701984702B070BD0020CE
:10AE500002B070BD61AC0200002A00F097802DE9BD
:10AE6000F0434B4991F81C9191F81D7191F81E81A6
:10AE700093B01D46064608F1010309F1020014468D
:10AE8000BA1C81F81C0181F81D2181F81E3101A82E
:10AE90004222002114F074FD412D73D932798DF8CE
:10AEA00014207A1C204662F07F0440F60832ADF888
:10AEB000042040F2094540F20122ADF80C50ADF8F3
:10AEC00010202425334A8DF81650069209F101030B
:10AED00004220125DBB28DF81C508DF81F208DF85F
:10AEE000302040F2022640F2075240F224658DF8ED
:10AEF0001E308DF827308DF83130ADF80860022310
:10AF0000ADF82450ADF82820ADF83820224E8DF849
:10AF10000730032508228DF812308DF833308DF874
:10AF20003B30089605238DF82B508DF82C2067F0C8
:10AF30007F074FF411660A2540228DF81530ADF8D1
:10AF40002E608DF8345001A98DF806908DF80E9082
:10AF50008DF826908DF83A808DF82A7007268DF8A6
:10AF60003C2044F2020542228DF840308DF84140E9
:10AF70008DF83F60ADF8425014F0DAFC422013B077
:10AF8000BDE8F083002013B0BDE8F0834220704795
:10AF9000E46D00202001052424020605437DFF2BDB
:10AFA00002D10A4B1A7802B1704710B500F11004B3
:10AFB00042750749204601221A7000F0EBF921463C
:10AFC0000448BDE8104000F0F3B800BFE06D002079
:10AFD0006C310400E46D0020407DFF280ED000B5E8
:10AFE00083B000F0EFFB10B103B05DF804FB0190FB
:10AFF0000FF008F9019803B05DF804FB00207047DA
:10B0000001B900B1704700B583B0694600F0F0FBAC
:10B01000009BB3F5966F02D003B05DF804FB00F01F
:10B020007FFBF9E730B4084B084A4FF47F4102F147
:10B030000805002430324FF47A709982C3E9014048
:10B040001D601A6130BC7047C86D00207C3104005F
:10B050000378002B00F09280F0B5054600200446EE
:10B060002E4603E001342B5D2E19C3B103F14002DB
:10B07000D2B2012AF6D9F42BF4D81A0610D4012240
:10B08000A3F55846B6F5006FECD31444202806D03B
:10B0900021F810302B5D01302E19002BE6D1F0BDC8
:10B0A00003F0E002C02A52D003F0F002E02A61D09F
:10B0B00003F0F802F02AD5D103F0070304277278D1
:10B0C00002F0C00CBCF1800FCCD196F802C00CF09D
:10B0D000C00E02F03F02BEF1800F42EA8313C1D1DD
:10B0E0000CF03F0C032F4CEA83132AD0F27802F0C5
:10B0F000C006802EB6D102F03F0242EA8313A3F5C8
:10B100008032B2F5801F38BF0427ABD2A3F5584276
:10B11000B2F5006FA6D3B3F5803F3C44B6D31E28EA
:10B12000BDDCA3F5803342009E0A0A44C3F3090341
:10B13000A6F52056A3F5105321F810605380023075
:10B1400091E7A3F50062B2F5784FDFD38AE7727812
:10B1500002F0C006802E03F01F0383D102F03F02ED
:10B1600042EA8313A3F18002B2F5F06FBFF47AAF25
:10B17000022285E703F00F030327A0E71846704774
:10B1800090F850310B2B0CD871B110B403F1480278
:10B190005C1C80F850415DF8044B40F822101846C2
:10B1A00070470023184670470B461846704700BF8B
:10B1B00070B504460E68B4F81821B4F81A31656900
:10B1C00036689B1A08469BB294F81C112A44B04773
:10B1D00058B1B4F81831626903449BB2A4F818312D
:10B1E000538094F81C311371012070BD2DE9F04398
:10B1F000264DDFF8A890AC4604468846BCE80F0010
:10B2000089B003AF0FC703AE0FCE05F1140E25466C
:10B210000FC59EE80700DCF800303B806B463668BF
:10B220002E8003C36B4603CB012504F118034FF4B2
:10B2300080766361A061E16184F8202004F5987054
:10B24000C4F818912022A4F81C61002184F81E5132
:10B2500014F096FB0E4E0F48A571042240F2EF2326
:10B2600040F209470021C4E94A0184F85021A38033
:10B270004FF4E131C4E948760748FFF78FFE4046B6
:10B2800000F03CFA284609B0BDE8F083D031040054
:10B29000B03104005C2F0400C86D002009000001DB
:10B2A0002DE9F047D0F82C0188B00E4630B10231BC
:10B2B000FFF7CEFEC0B208B0BDE8F087684600F0E8
:10B2C00031FA8646F8B1431E06F10409DBB2114D8E
:10B2D000E84609EB830904AC95E80F0018F8017BF8
:10B2E00084E80F0007F00F0C0DF1200AD4440AEB9C
:10B2F00017171CF810CC17F8103CA6F804C0738080
:10B300000436B145E8D14FEA4E00C0B208B0BDE8FE
:10B31000F08700BFBC31040000487047E46D002096
:10B32000014B5869704700BFE46D002010B5B0B103
:10B3300003281CD0154C94F85031834223D948304F
:10B3400004F5AA7154F82000FFF782FEC3B201335E
:10B350005B0043F440730E48A4F8523110BD0B4C0F
:10B36000D4F82031A4F854314FF44173F3E708497D
:10B37000A1F5A9742046FFF793FF431C5B0043F43B
:10B3800040739BB2E7E7002010BD00BFE46D0020D2
:10B39000366F002010B504460248FFF7F1FE207119
:10B3A00010BD00BFE46D002010B5134C236882B0BF
:10B3B00003B3186851B905F0A5FF236893F9040099
:10B3C000012102B0BDE810400FF0A6BA0B4B00936C
:10B3D0004FF48073ADF8043002AB13E9060005F0BA
:10B3E0002FFF236893F90400002102B0BDE810404C
:10B3F0000FF092BA02B010BD786F002080BA8C01B5
:10B400000448006828B108B5006805F081FF0120F4
:10B4100008BD7047786F0020084B1B6863B119B1F5
:10B42000074B40221A607047054B4022C3F880202A
:10B43000BFF34F8FBFF36F8F704700BF786F00204F
:10B4400000E100E0024B53F8200000B1C0687047F3
:10B450007C6F002030B4094CBDF8085054F82040EF
:10B4600044B1246934B10846A44611461A462B4615
:10B4700030BC6047002030BC704700BF7C6F0020AC
:10B4800030B4084CBDF8085054F8204044B1646909
:10B4900034B10846A44611461A462B4630BC6047D4
:10B4A00030BC70477C6F0020024B186808B190F8E0
:10B4B00060007047846F00202DE9F843234C256815
:10B4C000002D40D01E462C2303FB00530446D3F826
:10B4D000209088461746B9F1000F30D0484615F045
:10B4E0003AF90828024628BF08222C2000FB045401
:10B4F000D4E90954DFF85CC0154B002D08BF654640
:10B5000049464046002C08BF1C4614F011FA284654
:10B5100015F021F910280246294628BF1022384686
:10B5200014F006FA204615F016F9042802462146C2
:10B53000304628BF0422BDE8F84314F0F9B9DFF81B
:10B5400018900822D1E7BDE8F88300BF846F00207F
:10B5500000320400F0310400B031040070B5104E28
:10B560003368CBB12C2404FB0034054662691AB160
:10B570009047336884F832002C2202FB053393F89D
:10B5800032400CB1204670BD284623463A220221A3
:10B5900001F094F8204670BD1C46204670BD00BFE7
:10B5A000846F0020074B1B6853B110B42C2404FB9C
:10B5B0000030C46A038E0C605DF8044B1380704742
:10B5C000704700BF846F002008B5202200230521AA
:10B5D00001F074F84FF0FF3008BD00BF30B4084CE4
:10B5E000256855B10446084611461A462C2303FB2C
:10B5F0000454E3690BB130BC1847012030BC7047DC
:10B60000846F002030B4094C029A25684DB104467D
:10B61000084619462C2303FB0454A3680BB130BC25
:10B6200018474FF0FF3030BC704700BF846F0020D8
:10B6300030B4094C029A25684DB1044608461946B3
:10B640002C2303FB0454E3680BB130BC18474FF0C4
:10B65000FF3030BC704700BF846F0020044B1B6874
:10B660002BB12C2202FB0030036903B1184770474D
:10B67000846F0020054B1B682BB12C2202FB00308D
:10B68000836903B118470120704700BF846F002011
:10B6900005F0FAB900B5154B83B0402283F8272393
:10B6A00001A901230020ADF8043002F087FF4FF01C
:10B6B00080430024D3F838548DF8004068460EF0DB
:10B6C00053FA0B4B019301A80EF09EFA0EF0A8FA64
:10B6D000EB0707D400214FF0FF3002F0FDFFFFF72A
:10B6E00065FAF7E7204605F0CFF9F3E700E100E05F
:10B6F00091B60200002004F02DBE00BF00B500236B
:10B7000083B00322CDE9002303490448C8220CF08A
:10B71000EBFE03B05DF804FB0432040095B60200B2
:10B720000FF072B84FF08052536E1BBA0360136E65
:10B730001BBA436008207047004870470C32040071
:10B7400070B51E4D2B6883B1012913D11478C4F351
:10B750004114012C0BD0022C07D15478012C0BD0B2
:10B76000022C07D19388072B20D0002070BD517880
:10B7700022290BD0012070BD9C69002CF5D02378C4
:10B7800011462246BDE8704003F038BE51880039AA
:10B7900018BF01215975114603F016FE2A68D369B6
:10B7A000002BE7D0507D9847204670BD044C1146D1
:10B7B00023892246BDE8704003F020BE886F002038
:10B7C0000460002010B5044602F0E0FE08B9002035
:10B7D00010BD02F0E3FE0028F9D104484FF436739F
:10B7E00003FB0400007900F0010010BD0C70002084
:10B7F000054B4FF4367202FB0033986808609A8953
:10B800009B7B8B718A8070470C70002008B5044BBD
:10B810004FF4367202FB0030103002F0A5FC08BD78
:10B820000C7000202DE9F8434FF4367404FB00F44B
:10B830001E4E4FF6FF73074604F110054FF6FE70DB
:10B84000824288BF1A46354492B2284602F0B8FCBC
:10B85000804602F09BFE10B94046BDE8F88302F036
:10B860009DFE81460028F7D13444E378002BF3D0C5
:10B87000284602F093FC3F28EED9E178484603F0D1
:10B88000F1FC0028E8D0284602F088FC3F2808D9BF
:10B89000074AE178484602EBC712402303F002FD55
:10B8A000DAE7E178484603F0EDFCD5E70C700020BC
:10B8B0008C6F0020034B4FF4367202FB00301030C7
:10B8C00002F0ECBC0C7000202DE9F041064602F0BD
:10B8D0005DFE10B90020BDE8F08102F05FFE8046F9
:10B8E0000028F7D14FF43674174F04FB06F404F127
:10B8F00024053D44284602F037FC0028EAD02744BE
:10B900004046B97803F0AEFC0028E3D00F4940224E
:10B9100002EBC6160E442846314602F051FC04469E
:10B9200060B1B97832464046234603F0BBFC40B9CB
:10B93000074B1B68DB07CDD500BECCE7B97803F019
:10B94000A1FC2046C7E700BF0C7000208C6F0020D0
:10B95000F0ED00E038B5104B4FF4367404FB0034C2
:10B9600005464FF6FF734FF6FE70824288BF1A46B7
:10B97000243492B2204602F0CBFC034620461C46FB
:10B9800002F0F2FB3F2801D8204638BD2846FFF7D9
:10B990009BFF204638BD00BF0C70002008B5044B4B
:10B9A0004FF4367202FB0030243002F0F7FB08BD82
:10B9B0000C70002070B5214C82B000214FF436721B
:10B9C00020460E4613F0DCFFFF234FF4E13208253A
:10B9D00004F138016371A26001234FF48072009674
:10B9E00004F11000A573A68102F086FB144B1B78AE
:10B9F000C3F38003009304F59C7101234FF480721C
:10BA000004F1240002F078FB04F50E7101200BF024
:10BA1000CDFF04F52271054601200BF0C7FF05B1EB
:10BA200030B9084B1B68DB0700D500BE02B070BD03
:10BA3000C4E90765C4E90C0602B070BD0C700020B3
:10BA4000B8600020F0ED00E038B5094C206A256BA5
:10BA500020B10CF0ABFB0023C4E907332DB128461D
:10BA60000CF0A4FB0023C4E90C33012038BD00BF57
:10BA70000C70002010B50E4C0E4823780022026096
:10BA80000271DA0709D59B070DD521780A48BDE870
:10BA90001040C1F3800102F0FDBC103002F0DAFC6E
:10BAA00023789B07F1D4044802F0D4FCEDE700BFF3
:10BAB000B86000200C700020307000202DE9F041AB
:10BAC0004B79022B82B002D18B79022B04D0002556
:10BAD000284602B0BDE8F081374FBB782BB1374B19
